{
  "contractName": "Ticket",
  "abi": [
    {
      "constant": true,
      "inputs": [
        {
          "name": "",
          "type": "bytes32"
        }
      ],
      "name": "ticketsByTicketId",
      "outputs": [
        {
          "name": "eventId",
          "type": "bytes32"
        },
        {
          "name": "userId",
          "type": "bytes32"
        },
        {
          "name": "ticketId",
          "type": "bytes32"
        },
        {
          "name": "isValid",
          "type": "bool"
        }
      ],
      "payable": false,
      "stateMutability": "view",
      "type": "function",
      "signature": "0x441d9a99"
    },
    {
      "constant": true,
      "inputs": [
        {
          "name": "",
          "type": "bytes32"
        },
        {
          "name": "",
          "type": "uint256"
        }
      ],
      "name": "ticketsByUserId",
      "outputs": [
        {
          "name": "",
          "type": "bytes32"
        }
      ],
      "payable": false,
      "stateMutability": "view",
      "type": "function",
      "signature": "0x54f9e043"
    },
    {
      "anonymous": false,
      "inputs": [
        {
          "indexed": true,
          "name": "ticketId",
          "type": "bytes32"
        },
        {
          "indexed": true,
          "name": "eventId",
          "type": "bytes32"
        },
        {
          "indexed": true,
          "name": "userId",
          "type": "bytes32"
        }
      ],
      "name": "TicketCreated",
      "type": "event",
      "signature": "0xb75288dccd443f97929dfde7517d7efe0c13847c5bd0a6640588750e318baa21"
    },
    {
      "anonymous": false,
      "inputs": [
        {
          "indexed": true,
          "name": "ticketId",
          "type": "bytes32"
        },
        {
          "indexed": true,
          "name": "eventId",
          "type": "bytes32"
        },
        {
          "indexed": true,
          "name": "userId",
          "type": "bytes32"
        }
      ],
      "name": "TicketInvalidated",
      "type": "event",
      "signature": "0x8791e224fdc9b825eb0a3caadb7335559649927008c5ee4d755ec6e0757bf356"
    },
    {
      "constant": false,
      "inputs": [
        {
          "name": "eventId",
          "type": "bytes32"
        },
        {
          "name": "userId",
          "type": "bytes32"
        }
      ],
      "name": "createTicket",
      "outputs": [
        {
          "name": "",
          "type": "bytes32"
        }
      ],
      "payable": false,
      "stateMutability": "nonpayable",
      "type": "function",
      "signature": "0x272eb30c"
    },
    {
      "constant": true,
      "inputs": [
        {
          "name": "userId",
          "type": "bytes32"
        }
      ],
      "name": "getTicketsByUser",
      "outputs": [
        {
          "components": [
            {
              "name": "eventId",
              "type": "bytes32"
            },
            {
              "name": "userId",
              "type": "bytes32"
            },
            {
              "name": "ticketId",
              "type": "bytes32"
            },
            {
              "name": "isValid",
              "type": "bool"
            }
          ],
          "name": "",
          "type": "tuple[]"
        }
      ],
      "payable": false,
      "stateMutability": "view",
      "type": "function",
      "signature": "0x4d81c7b8"
    },
    {
      "constant": false,
      "inputs": [
        {
          "name": "ticketId",
          "type": "bytes32"
        }
      ],
      "name": "invalidateTicket",
      "outputs": [],
      "payable": false,
      "stateMutability": "nonpayable",
      "type": "function",
      "signature": "0xcb321867"
    },
    {
      "constant": true,
      "inputs": [
        {
          "name": "ticketId",
          "type": "bytes32"
        }
      ],
      "name": "getTicketDetails",
      "outputs": [
        {
          "components": [
            {
              "name": "eventId",
              "type": "bytes32"
            },
            {
              "name": "userId",
              "type": "bytes32"
            },
            {
              "name": "ticketId",
              "type": "bytes32"
            },
            {
              "name": "isValid",
              "type": "bool"
            }
          ],
          "name": "",
          "type": "tuple"
        }
      ],
      "payable": false,
      "stateMutability": "view",
      "type": "function",
      "signature": "0xb64dec65"
    }
  ],
  "bytecode": "0x608060405234801561001057600080fd5b50610d54806100206000396000f3fe608060405260043610610078576000357c0100000000000000000000000000000000000000000000000000000000900463ffffffff168063272eb30c1461007d578063441d9a99146100ba5780634d81c7b8146100fa57806354f9e04314610137578063b64dec6514610174578063cb321867146101b1575b600080fd5b34801561008957600080fd5b506100a4600480360361009f91908101906108e0565b6101da565b6040516100b19190610bb0565b60405180910390f35b3480156100c657600080fd5b506100e160048036036100dc91908101906108b7565b610373565b6040516100f19493929190610bcb565b60405180910390f35b34801561010657600080fd5b50610121600480360361011c91908101906108b7565b6103b0565b60405161012e9190610b8e565b60405180910390f35b34801561014357600080fd5b5061015e6004803603610159919081019061091c565b610557565b60405161016b9190610bb0565b60405180910390f35b34801561018057600080fd5b5061019b600480360361019691908101906108b7565b610587565b6040516101a89190610cb0565b60405180910390f35b3480156101bd57600080fd5b506101d860048036036101d391908101906108b7565b610636565b005b6000806001028314151515610224576040517f08c379a000000000000000000000000000000000000000000000000000000000815260040161021b90610c90565b60405180910390fd5b6000600102821415151561026d576040517f08c379a000000000000000000000000000000000000000000000000000000000815260040161026490610c30565b60405180910390fd5b600061027761078d565b9050610281610827565b6080604051908101604052808681526020018581526020018381526020016001151581525090508060008084815260200190815260200160002060008201518160000155602082015181600101556040820151816002015560608201518160030160006101000a81548160ff021916908315150217905550905050600160008581526020019081526020016000208290806001815401808255809150509060018203906000526020600020016000909192909190915055508385837fb75288dccd443f97929dfde7517d7efe0c13847c5bd0a6640588750e318baa2160405160405180910390a4819250505092915050565b60006020528060005260406000206000915090508060000154908060010154908060020154908060030160009054906101000a900460ff16905084565b6060600060010282141515156103fb576040517f08c379a00000000000000000000000000000000000000000000000000000000081526004016103f290610c30565b60405180910390fd5b60606001600084815260200190815260200160002080548060200260200160405190810160405280929190818152602001828054801561045a57602002820191906000526020600020905b815481526020019060010190808311610446575b505050505090506060815160405190808252806020026020018201604052801561049e57816020015b61048b61085b565b8152602001906001900390816104835790505b50905060008090505b825181101561054c57600083828151811015156104c057fe5b906020019060200201519050600080828152602001908152602001600020608060405190810160405290816000820154815260200160018201548152602001600282015481526020016003820160009054906101000a900460ff161515151581525050838381518110151561053157fe5b906020019060200201819052505080806001019150506104a7565b508092505050919050565b60016020528160005260406000208181548110151561057257fe5b90600052602060002001600091509150505481565b61058f610827565b600060010282141515156105d8576040517f08c379a00000000000000000000000000000000000000000000000000000000081526004016105cf90610c50565b60405180910390fd5b600080838152602001908152602001600020608060405190810160405290816000820154815260200160018201548152602001600282015481526020016003820160009054906101000a900460ff1615151515815250509050919050565b6000600102811415151561067f576040517f08c379a000000000000000000000000000000000000000000000000000000000815260040161067690610c50565b60405180910390fd5b6000806000838152602001908152602001600020905060006001028160000154141515156106e2576040517f08c379a00000000000000000000000000000000000000000000000000000000081526004016106d990610c70565b60405180910390fd5b8060030160009054906101000a900460ff161515610735576040517f08c379a000000000000000000000000000000000000000000000000000000000815260040161072c90610c10565b60405180910390fd5b60008160030160006101000a81548160ff02191690831515021790555080600101548160000154837f8791e224fdc9b825eb0a3caadb7335559649927008c5ee4d755ec6e0757bf35660405160405180910390a45050565b600080424433604051602001808481526020018381526020018273ffffffffffffffffffffffffffffffffffffffff1673ffffffffffffffffffffffffffffffffffffffff166c0100000000000000000000000002815260140193505050506040516020818303038152906040528051906020012060019004905060006305f5e1008281151561081957fe5b066001029050809250505090565b6080604051908101604052806000801916815260200160008019168152602001600080191681526020016000151581525090565b6080604051908101604052806000801916815260200160008019168152602001600080191681526020016000151581525090565b600061089b8235610d06565b905092915050565b60006108af8235610d10565b905092915050565b6000602082840312156108c957600080fd5b60006108d78482850161088f565b91505092915050565b600080604083850312156108f357600080fd5b60006109018582860161088f565b92505060206109128582860161088f565b9150509250929050565b6000806040838503121561092f57600080fd5b600061093d8582860161088f565b925050602061094e858286016108a3565b9150509250929050565b600061096382610cd8565b80845260208401935061097583610ccb565b60005b828110156109a75761098b868351610b39565b61099482610ce3565b9150608086019550600181019050610978565b50849250505092915050565b6109bc81610cf0565b82525050565b6109cb81610cfc565b82525050565b6000601982527f5469636b657420697320616c726561647920696e76616c6964000000000000006020830152604082019050919050565b6000600f82527f496e76616c6964207573657220494400000000000000000000000000000000006020830152604082019050919050565b6000601182527f496e76616c6964207469636b65742049440000000000000000000000000000006020830152604082019050919050565b6000601582527f5469636b657420646f6573206e6f7420657869737400000000000000000000006020830152604082019050919050565b6000601082527f496e76616c6964206576656e74204944000000000000000000000000000000006020830152604082019050919050565b608082016000820151610afa60008501826109c2565b506020820151610b0d60208501826109c2565b506040820151610b2060408501826109c2565b506060820151610b3360608501826109b3565b50505050565b608082016000820151610b4f60008501826109c2565b506020820151610b6260208501826109c2565b506040820151610b7560408501826109c2565b506060820151610b8860608501826109b3565b50505050565b60006020820190508181036000830152610ba88184610958565b905092915050565b6000602082019050610bc560008301846109c2565b92915050565b6000608082019050610be060008301876109c2565b610bed60208301866109c2565b610bfa60408301856109c2565b610c0760608301846109b3565b95945050505050565b60006020820190508181036000830152610c29816109d1565b9050919050565b60006020820190508181036000830152610c4981610a08565b9050919050565b60006020820190508181036000830152610c6981610a3f565b9050919050565b60006020820190508181036000830152610c8981610a76565b9050919050565b60006020820190508181036000830152610ca981610aad565b9050919050565b6000608082019050610cc56000830184610ae4565b92915050565b6000602082019050919050565b600081519050919050565b6000602082019050919050565b60008115159050919050565b6000819050919050565b6000819050919050565b600081905091905056fea265627a7a723058208800b75985332186e2fbce1a0a1b87415dbba63ef3c21ff1b6024ee29a33ec6e6c6578706572696d656e74616cf50037",
  "source": "pragma solidity >=0.5.0 <0.9.0;\r\npragma experimental ABIEncoderV2;\r\n\r\ncontract Ticket {\r\n    struct Tickets {\r\n        bytes32 eventId;\r\n        bytes32 userId;\r\n        bytes32 ticketId;\r\n        bool isValid;\r\n    }\r\n\r\n    mapping(bytes32 => Tickets) public ticketsByTicketId;\r\n    mapping(bytes32 => bytes32[]) public ticketsByUserId;\r\n\r\n    event TicketCreated(bytes32 indexed ticketId, bytes32 indexed eventId, bytes32 indexed userId);\r\n    event TicketInvalidated(bytes32 indexed ticketId, bytes32 indexed eventId, bytes32 indexed userId);\r\n\r\n    uint256 private lastTicketId;\r\n\r\n    function createTicket(bytes32 eventId, bytes32 userId) external returns (bytes32) {\r\n        require(eventId != bytes32(0), \"Invalid event ID\");\r\n        require(userId != bytes32(0), \"Invalid user ID\");\r\n\r\n        bytes32 ticketId = generateRandomTicketId();\r\n\r\n        Tickets memory newTicket = Tickets({\r\n            eventId: eventId,\r\n            userId: userId,\r\n            ticketId: ticketId,\r\n            isValid: true\r\n        });\r\n\r\n        ticketsByTicketId[ticketId] = newTicket;\r\n        ticketsByUserId[userId].push(ticketId);\r\n\r\n        emit TicketCreated(ticketId, eventId, userId);\r\n\r\n        return ticketId;\r\n    }\r\n\r\n    function generateRandomTicketId() internal view returns (bytes32) {\r\n        uint256 randomValue = uint256(keccak256(abi.encodePacked(block.timestamp, block.difficulty, msg.sender)));\r\n        bytes32 ticketId = bytes32(randomValue % 100000000); // Ensure 8-digit value\r\n        return ticketId;\r\n    }\r\n\r\n    function getTicketsByUser(bytes32 userId) external view returns (Tickets[] memory) {\r\n        require(userId != bytes32(0), \"Invalid user ID\");\r\n\r\n        bytes32[] memory ticketIds = ticketsByUserId[userId];\r\n        Tickets[] memory userTickets = new Tickets[](ticketIds.length);\r\n\r\n        for (uint256 i = 0; i < ticketIds.length; i++) {\r\n            bytes32 ticketId = ticketIds[i];\r\n            userTickets[i] = ticketsByTicketId[ticketId];\r\n        }\r\n\r\n        return userTickets;\r\n    }\r\n\r\n    function invalidateTicket(bytes32 ticketId) external {\r\n        require(ticketId != bytes32(0), \"Invalid ticket ID\");\r\n\r\n        Tickets storage ticket = ticketsByTicketId[ticketId];\r\n\r\n        require(ticket.eventId != bytes32(0), \"Ticket does not exist\");\r\n        require(ticket.isValid, \"Ticket is already invalid\");\r\n\r\n        ticket.isValid = false;\r\n\r\n        emit TicketInvalidated(ticketId, ticket.eventId, ticket.userId);\r\n    }\r\n\r\n    function getTicketDetails(bytes32 ticketId) external view returns (Tickets memory) {\r\n        require(ticketId != bytes32(0), \"Invalid ticket ID\");\r\n\r\n        return ticketsByTicketId[ticketId];\r\n    }\r\n}\r\n",
  "sourcePath": "D:/D drive/Code/Blockchain/Ganache-react-dapp/contracts/Ticket.sol",
  "compiler": {
    "name": "solc",
    "version": "0.5.0+commit.1d4f565a.Emscripten.clang"
  },
  "schemaVersion": "3.0.1",
  "updatedAt": "2023-06-11T14:10:08.494Z",
  "devdoc": {
    "methods": {}
  },
  "userdoc": {
    "methods": {}
  }
}