{
  "contractName": "Ticket",
  "abi": [
    {
      "constant": true,
      "inputs": [
        {
          "name": "",
          "type": "uint256"
        }
      ],
      "name": "ticketsByTicketId",
      "outputs": [
        {
          "name": "eventId",
          "type": "uint256"
        },
        {
          "name": "userId",
          "type": "uint256"
        },
        {
          "name": "isValid",
          "type": "bool"
        }
      ],
      "payable": false,
      "stateMutability": "view",
      "type": "function",
      "signature": "0x2f8937cf"
    },
    {
      "constant": true,
      "inputs": [
        {
          "name": "",
          "type": "uint256"
        },
        {
          "name": "",
          "type": "uint256"
        }
      ],
      "name": "ticketsByUserId",
      "outputs": [
        {
          "name": "",
          "type": "uint256"
        }
      ],
      "payable": false,
      "stateMutability": "view",
      "type": "function",
      "signature": "0xe4f9c459"
    },
    {
      "anonymous": false,
      "inputs": [
        {
          "indexed": true,
          "name": "ticketId",
          "type": "uint256"
        },
        {
          "indexed": true,
          "name": "eventId",
          "type": "uint256"
        },
        {
          "indexed": true,
          "name": "userId",
          "type": "uint256"
        }
      ],
      "name": "TicketCreated",
      "type": "event",
      "signature": "0x015fe086a28ff064d17fc757f71eb6ac3ad0490975fa9fc9b674b65dcd1aefce"
    },
    {
      "anonymous": false,
      "inputs": [
        {
          "indexed": true,
          "name": "ticketId",
          "type": "uint256"
        },
        {
          "indexed": true,
          "name": "eventId",
          "type": "uint256"
        },
        {
          "indexed": true,
          "name": "userId",
          "type": "uint256"
        }
      ],
      "name": "TicketInvalidated",
      "type": "event",
      "signature": "0xd771841efd3e1a2ff1f21fb2d7c7ca69a904fbbab271f06da9ad39a35f0b449b"
    },
    {
      "constant": false,
      "inputs": [
        {
          "name": "eventId",
          "type": "uint256"
        },
        {
          "name": "userId",
          "type": "uint256"
        }
      ],
      "name": "createTicket",
      "outputs": [
        {
          "name": "",
          "type": "uint256"
        }
      ],
      "payable": false,
      "stateMutability": "nonpayable",
      "type": "function",
      "signature": "0x64002357"
    },
    {
      "constant": true,
      "inputs": [
        {
          "name": "userId",
          "type": "uint256"
        }
      ],
      "name": "getTicketsByUser",
      "outputs": [
        {
          "name": "",
          "type": "uint256[]"
        }
      ],
      "payable": false,
      "stateMutability": "view",
      "type": "function",
      "signature": "0xa1bc6806"
    },
    {
      "constant": false,
      "inputs": [
        {
          "name": "ticketId",
          "type": "uint256"
        }
      ],
      "name": "invalidateTicket",
      "outputs": [],
      "payable": false,
      "stateMutability": "nonpayable",
      "type": "function",
      "signature": "0xc7ddab36"
    },
    {
      "constant": true,
      "inputs": [
        {
          "name": "ticketId",
          "type": "uint256"
        }
      ],
      "name": "getTicketDetails",
      "outputs": [
        {
          "components": [
            {
              "name": "eventId",
              "type": "uint256"
            },
            {
              "name": "userId",
              "type": "uint256"
            },
            {
              "name": "isValid",
              "type": "bool"
            }
          ],
          "name": "",
          "type": "tuple"
        }
      ],
      "payable": false,
      "stateMutability": "view",
      "type": "function",
      "signature": "0x24c14160"
    }
  ],
  "bytecode": "0x608060405234801561001057600080fd5b50610bbe806100206000396000f3fe608060405260043610610078576000357c0100000000000000000000000000000000000000000000000000000000900463ffffffff16806324c141601461007d5780632f8937cf146100ba57806364002357146100f9578063a1bc680614610136578063c7ddab3614610173578063e4f9c4591461019c575b600080fd5b34801561008957600080fd5b506100a4600480360361009f9190810190610786565b6101d9565b6040516100b19190610ad2565b60405180910390f35b3480156100c657600080fd5b506100e160048036036100dc9190810190610786565b61027a565b6040516100f093929190610b08565b60405180910390f35b34801561010557600080fd5b50610120600480360361011b91908101906107af565b6102b1565b60405161012d9190610aed565b60405180910390f35b34801561014257600080fd5b5061015d60048036036101589190810190610786565b61048e565b60405161016a91906109f0565b60405180910390f35b34801561017f57600080fd5b5061019a60048036036101959190810190610786565b61053e565b005b3480156101a857600080fd5b506101c360048036036101be91908101906107af565b61068e565b6040516101d09190610aed565b60405180910390f35b6101e161074e565b600082111515610226576040517f08c379a000000000000000000000000000000000000000000000000000000000815260040161021d90610a52565b60405180910390fd5b6000808381526020019081526020016000206060604051908101604052908160008201548152602001600182015481526020016002820160009054906101000a900460ff1615151515815250509050919050565b60006020528060005260406000206000915090508060000154908060010154908060020160009054906101000a900460ff16905083565b600080831115156102f7576040517f08c379a00000000000000000000000000000000000000000000000000000000081526004016102ee90610ab2565b60405180910390fd5b60008211151561033c576040517f08c379a000000000000000000000000000000000000000000000000000000000815260040161033390610a32565b60405180910390fd5b600260008154809291906001019190505550620f423f60025411151515610398576040517f08c379a000000000000000000000000000000000000000000000000000000000815260040161038f90610a72565b60405180910390fd5b60006103a26106be565b90506103ac61074e565b60606040519081016040528086815260200185815260200160011515815250905080600080848152602001908152602001600020600082015181600001556020820151816001015560408201518160020160006101000a81548160ff021916908315150217905550905050600160008581526020019081526020016000208290806001815401808255809150509060018203906000526020600020016000909192909190915055508385837f015fe086a28ff064d17fc757f71eb6ac3ad0490975fa9fc9b674b65dcd1aefce60405160405180910390a4819250505092915050565b60606000821115156104d5576040517f08c379a00000000000000000000000000000000000000000000000000000000081526004016104cc90610a32565b60405180910390fd5b6001600083815260200190815260200160002080548060200260200160405190810160405280929190818152602001828054801561053257602002820191906000526020600020905b81548152602001906001019080831161051e575b50505050509050919050565b600081111515610583576040517f08c379a000000000000000000000000000000000000000000000000000000000815260040161057a90610a52565b60405180910390fd5b6000806000838152602001908152602001600020905060008160010154141515156105e3576040517f08c379a00000000000000000000000000000000000000000000000000000000081526004016105da90610a92565b60405180910390fd5b8060020160009054906101000a900460ff161515610636576040517f08c379a000000000000000000000000000000000000000000000000000000000815260040161062d90610a12565b60405180910390fd5b60008160020160006101000a81548160ff02191690831515021790555080600101548160000154837fd771841efd3e1a2ff1f21fb2d7c7ca69a904fbbab271f06da9ad39a35f0b449b60405160405180910390a45050565b6001602052816000526040600020818154811015156106a957fe5b90600052602060002001600091509150505481565b600080424433604051602001808481526020018381526020018273ffffffffffffffffffffffffffffffffffffffff1673ffffffffffffffffffffffffffffffffffffffff166c01000000000000000000000000028152601401935050505060405160208183030381529060405280519060200120600190049050620f42408181151561074757fe5b0691505090565b60606040519081016040528060008152602001600081526020016000151581525090565b600061077e8235610b7a565b905092915050565b60006020828403121561079857600080fd5b60006107a684828501610772565b91505092915050565b600080604083850312156107c257600080fd5b60006107d085828601610772565b92505060206107e185828601610772565b9150509250929050565b60006107f682610b4c565b80845260208401935061080883610b3f565b60005b8281101561083a5761081e8683516109e1565b61082782610b57565b915060208601955060018101905061080b565b50849250505092915050565b61084f81610b64565b82525050565b6000601982527f5469636b657420697320616c726561647920696e76616c6964000000000000006020830152604082019050919050565b6000600f82527f496e76616c6964207573657220494400000000000000000000000000000000006020830152604082019050919050565b6000601182527f496e76616c6964207469636b65742049440000000000000000000000000000006020830152604082019050919050565b6000601f82527f4d6178696d756d207469636b6574204944206c696d69742072656163686564006020830152604082019050919050565b6000601582527f5469636b657420646f6573206e6f7420657869737400000000000000000000006020830152604082019050919050565b6000601082527f496e76616c6964206576656e74204944000000000000000000000000000000006020830152604082019050919050565b6060820160008201516109b560008501826109e1565b5060208201516109c860208501826109e1565b5060408201516109db6040850182610846565b50505050565b6109ea81610b70565b82525050565b60006020820190508181036000830152610a0a81846107eb565b905092915050565b60006020820190508181036000830152610a2b81610855565b9050919050565b60006020820190508181036000830152610a4b8161088c565b9050919050565b60006020820190508181036000830152610a6b816108c3565b9050919050565b60006020820190508181036000830152610a8b816108fa565b9050919050565b60006020820190508181036000830152610aab81610931565b9050919050565b60006020820190508181036000830152610acb81610968565b9050919050565b6000606082019050610ae7600083018461099f565b92915050565b6000602082019050610b0260008301846109e1565b92915050565b6000606082019050610b1d60008301866109e1565b610b2a60208301856109e1565b610b376040830184610846565b949350505050565b6000602082019050919050565b600081519050919050565b6000602082019050919050565b60008115159050919050565b6000819050919050565b600081905091905056fea265627a7a723058201e4185bcc40eb57c4b2743a7461564d79863d5cf50314ee0ba9a873228cf490f6c6578706572696d656e74616cf50037",
  "source": "pragma solidity >=0.5.0 <0.9.0;\r\npragma experimental ABIEncoderV2;\r\n\r\ncontract Ticket {\r\n    struct Tickets {\r\n        uint256 eventId;\r\n        uint256 userId;\r\n        bool isValid;\r\n    }\r\n\r\n    mapping(uint256 => Tickets) public ticketsByTicketId;\r\n    mapping(uint256 => uint256[]) public ticketsByUserId;\r\n\r\n    event TicketCreated(uint256 indexed ticketId, uint256 indexed eventId, uint256 indexed userId);\r\n    event TicketInvalidated(uint256 indexed ticketId, uint256 indexed eventId, uint256 indexed userId);\r\n\r\n    uint256 private lastTicketId;\r\n\r\n    function createTicket(uint256 eventId, uint256 userId) external returns (uint256) {\r\n        require(eventId > 0, \"Invalid event ID\");\r\n        require(userId > 0, \"Invalid user ID\");\r\n\r\n        lastTicketId++;\r\n        require(lastTicketId <= 999999, \"Maximum ticket ID limit reached\");\r\n\r\n        uint256 ticketId = generateTicketId();\r\n\r\n        Tickets memory newTicket = Tickets({\r\n            eventId: eventId,\r\n            userId: userId,\r\n            isValid: true\r\n        });\r\n\r\n        ticketsByTicketId[ticketId] = newTicket;\r\n        ticketsByUserId[userId].push(ticketId);\r\n\r\n        emit TicketCreated(ticketId, eventId, userId);\r\n\r\n        return ticketId;\r\n    }\r\n\r\n    function getTicketsByUser(uint256 userId) external view returns (uint256[] memory) {\r\n        require(userId > 0, \"Invalid user ID\");\r\n\r\n        return ticketsByUserId[userId];\r\n    }\r\n\r\n    function invalidateTicket(uint256 ticketId) external {\r\n        require(ticketId > 0, \"Invalid ticket ID\");\r\n\r\n        Tickets storage ticket = ticketsByTicketId[ticketId];\r\n\r\n        require(ticket.userId != 0, \"Ticket does not exist\");\r\n        require(ticket.isValid, \"Ticket is already invalid\");\r\n\r\n        ticket.isValid = false;\r\n\r\n        emit TicketInvalidated(ticketId, ticket.eventId, ticket.userId);\r\n    }\r\n\r\n    function generateTicketId() private view returns (uint256) {\r\n        uint256 randomNumber = uint256(keccak256(abi.encodePacked(block.timestamp, block.difficulty, msg.sender)));\r\n        return randomNumber % 1000000;\r\n    }\r\n\r\n    function getTicketDetails(uint256 ticketId) external view returns (Tickets memory) {\r\n    require(ticketId > 0, \"Invalid ticket ID\");\r\n\r\n    return ticketsByTicketId[ticketId];\r\n}\r\n\r\n}\r\n",
  "sourcePath": "D:/D drive/Code/Blockchain/Ganache-react-dapp/contracts/Ticket.sol",
  "compiler": {
    "name": "solc",
    "version": "0.5.0+commit.1d4f565a.Emscripten.clang"
  },
  "schemaVersion": "3.0.1",
  "updatedAt": "2023-06-11T07:12:35.477Z",
  "devdoc": {
    "methods": {}
  },
  "userdoc": {
    "methods": {}
  }
}